{
    "_format": "hh-sol-artifact-1",
    "contractName": "Transactions",
    "sourceName": "contracts/Transactions.sol",
    "abi": [
        {
            "anonymous": false,
            "inputs": [
                {
                    "indexed": false,
                    "internalType": "address",
                    "name": "from",
                    "type": "address"
                },
                {
                    "indexed": false,
                    "internalType": "address",
                    "name": "reciever",
                    "type": "address"
                },
                {
                    "indexed": false,
                    "internalType": "uint256",
                    "name": "amount",
                    "type": "uint256"
                },
                {
                    "indexed": false,
                    "internalType": "string",
                    "name": "message",
                    "type": "string"
                },
                {
                    "indexed": false,
                    "internalType": "uint256",
                    "name": "timestamp",
                    "type": "uint256"
                },
                {
                    "indexed": false,
                    "internalType": "string",
                    "name": "keyword",
                    "type": "string"
                }
            ],
            "name": "Transfer",
            "type": "event"
        },
        {
            "inputs": [
                {
                    "internalType": "address payable",
                    "name": "reciever",
                    "type": "address"
                },
                {
                    "internalType": "uint256",
                    "name": "amount",
                    "type": "uint256"
                },
                {
                    "internalType": "string",
                    "name": "message",
                    "type": "string"
                },
                {
                    "internalType": "string",
                    "name": "keyword",
                    "type": "string"
                }
            ],
            "name": "addtoBlockchain",
            "outputs": [],
            "stateMutability": "nonpayable",
            "type": "function"
        },
        {
            "inputs": [],
            "name": "getAllTransactions",
            "outputs": [
                {
                    "components": [
                        {
                            "internalType": "address",
                            "name": "sender",
                            "type": "address"
                        },
                        {
                            "internalType": "address",
                            "name": "reciever",
                            "type": "address"
                        },
                        {
                            "internalType": "uint256",
                            "name": "amount",
                            "type": "uint256"
                        },
                        {
                            "internalType": "string",
                            "name": "message",
                            "type": "string"
                        },
                        {
                            "internalType": "uint256",
                            "name": "timestamp",
                            "type": "uint256"
                        },
                        {
                            "internalType": "string",
                            "name": "keyword",
                            "type": "string"
                        }
                    ],
                    "internalType": "struct Transactions.TransferStruct[]",
                    "name": "",
                    "type": "tuple[]"
                }
            ],
            "stateMutability": "view",
            "type": "function"
        },
        {
            "inputs": [],
            "name": "getTransctionCount",
            "outputs": [
                {
                    "internalType": "uint256",
                    "name": "",
                    "type": "uint256"
                }
            ],
            "stateMutability": "view",
            "type": "function"
        }
    ],
    "bytecode": "0x608060405234801561001057600080fd5b50610bca806100206000396000f3fe608060405234801561001057600080fd5b50600436106100415760003560e01c80631ab324f51461004657806327506f53146100625780633dd547e914610080575b600080fd5b610060600480360381019061005b919061044a565b61009e565b005b61006a610252565b60405161007791906106ea565b60405180910390f35b610088610257565b604051610095919061071b565b60405180910390f35b60016000808282546100b09190610765565b9250508190555060016040518060c001604052803373ffffffffffffffffffffffffffffffffffffffff1681526020018673ffffffffffffffffffffffffffffffffffffffff16815260200185815260200184815260200142815260200183815250908060018154018082558091505060019003906000526020600020906006020160009091909190915060008201518160000160006101000a81548173ffffffffffffffffffffffffffffffffffffffff021916908373ffffffffffffffffffffffffffffffffffffffff16021790555060208201518160010160006101000a81548173ffffffffffffffffffffffffffffffffffffffff021916908373ffffffffffffffffffffffffffffffffffffffff1602179055506040820151816002015560608201518160030190816101e891906109a5565b506080820151816004015560a082015181600501908161020891906109a5565b5050507f416cfa4330a4565f45c2fd2dd4826a83a37443aba2ce6f79477c7355afac35fa33858585428660405161024496959493929190610b25565b60405180910390a150505050565b606090565b600090565b6000604051905090565b600080fd5b600080fd5b600073ffffffffffffffffffffffffffffffffffffffff82169050919050565b600061029b82610270565b9050919050565b6102ab81610290565b81146102b657600080fd5b50565b6000813590506102c8816102a2565b92915050565b6000819050919050565b6102e1816102ce565b81146102ec57600080fd5b50565b6000813590506102fe816102d8565b92915050565b600080fd5b600080fd5b6000601f19601f8301169050919050565b7f4e487b7100000000000000000000000000000000000000000000000000000000600052604160045260246000fd5b6103578261030e565b810181811067ffffffffffffffff821117156103765761037561031f565b5b80604052505050565b600061038961025c565b9050610395828261034e565b919050565b600067ffffffffffffffff8211156103b5576103b461031f565b5b6103be8261030e565b9050602081019050919050565b82818337600083830152505050565b60006103ed6103e88461039a565b61037f565b90508281526020810184848401111561040957610408610309565b5b6104148482856103cb565b509392505050565b600082601f83011261043157610430610304565b5b81356104418482602086016103da565b91505092915050565b6000806000806080858703121561046457610463610266565b5b6000610472878288016102b9565b9450506020610483878288016102ef565b935050604085013567ffffffffffffffff8111156104a4576104a361026b565b5b6104b08782880161041c565b925050606085013567ffffffffffffffff8111156104d1576104d061026b565b5b6104dd8782880161041c565b91505092959194509250565b600081519050919050565b600082825260208201905092915050565b6000819050602082019050919050565b600061052082610270565b9050919050565b61053081610515565b82525050565b61053f816102ce565b82525050565b600081519050919050565b600082825260208201905092915050565b60005b8381101561057f578082015181840152602081019050610564565b60008484015250505050565b600061059682610545565b6105a08185610550565b93506105b0818560208601610561565b6105b98161030e565b840191505092915050565b600060c0830160008301516105dc6000860182610527565b5060208301516105ef6020860182610527565b5060408301516106026040860182610536565b506060830151848203606086015261061a828261058b565b915050608083015161062f6080860182610536565b5060a083015184820360a0860152610647828261058b565b9150508091505092915050565b600061066083836105c4565b905092915050565b6000602082019050919050565b6000610680826104e9565b61068a81856104f4565b93508360208202850161069c85610505565b8060005b858110156106d857848403895281516106b98582610654565b94506106c483610668565b925060208a019950506001810190506106a0565b50829750879550505050505092915050565b600060208201905081810360008301526107048184610675565b905092915050565b610715816102ce565b82525050565b6000602082019050610730600083018461070c565b92915050565b7f4e487b7100000000000000000000000000000000000000000000000000000000600052601160045260246000fd5b6000610770826102ce565b915061077b836102ce565b925082820190508082111561079357610792610736565b5b92915050565b7f4e487b7100000000000000000000000000000000000000000000000000000000600052602260045260246000fd5b600060028204905060018216806107e057607f821691505b6020821081036107f3576107f2610799565b5b50919050565b60008190508160005260206000209050919050565b60006020601f8301049050919050565b600082821b905092915050565b60006008830261085b7fffffffffffffffffffffffffffffffffffffffffffffffffffffffffffffffff8261081e565b610865868361081e565b95508019841693508086168417925050509392505050565b6000819050919050565b60006108a261089d610898846102ce565b61087d565b6102ce565b9050919050565b6000819050919050565b6108bc83610887565b6108d06108c8826108a9565b84845461082b565b825550505050565b600090565b6108e56108d8565b6108f08184846108b3565b505050565b5b81811015610914576109096000826108dd565b6001810190506108f6565b5050565b601f8211156109595761092a816107f9565b6109338461080e565b81016020851015610942578190505b61095661094e8561080e565b8301826108f5565b50505b505050565b600082821c905092915050565b600061097c6000198460080261095e565b1980831691505092915050565b6000610995838361096b565b9150826002028217905092915050565b6109ae82610545565b67ffffffffffffffff8111156109c7576109c661031f565b5b6109d182546107c8565b6109dc828285610918565b600060209050601f831160018114610a0f57600084156109fd578287015190505b610a078582610989565b865550610a6f565b601f198416610a1d866107f9565b60005b82811015610a4557848901518255600182019150602085019450602081019050610a20565b86831015610a625784890151610a5e601f89168261096b565b8355505b6001600288020188555050505b505050505050565b610a8081610515565b82525050565b6000610aa1610a9c610a9784610270565b61087d565b610270565b9050919050565b6000610ab382610a86565b9050919050565b6000610ac582610aa8565b9050919050565b610ad581610aba565b82525050565b600082825260208201905092915050565b6000610af782610545565b610b018185610adb565b9350610b11818560208601610561565b610b1a8161030e565b840191505092915050565b600060c082019050610b3a6000830189610a77565b610b476020830188610acc565b610b54604083018761070c565b8181036060830152610b668186610aec565b9050610b75608083018561070c565b81810360a0830152610b878184610aec565b905097965050505050505056fea26469706673582212202c940b0952ac727a3bdf17305520222b62d53660234cffd9306a2390419050e864736f6c63430008130033",
    "linkReferences": {},
    "deployedLinkReferences": {}
}